:100000000C9449010C947A010C947A010C947A01B5
:100010000C947A010C947A010C947A010C947A0174
:100020000C947A010C947A010C947A010C947A0164
:100030000C947A010C947A010C947A010C947A0154
:100040000C947A010C947A010C947A010C947A0144
:100050000C947A010C947A010C947A010C945A0550
:100060000C947A010C9424050C94FA040C947A01F3
:100070000C947A010C947A010C947A010C947A0114
:100080000C947A010C947A010C947A010C947A0104
:100090000C947A010C947A010C947A010C947A01F4
:1000A0000C947A010C947A010C947A010C947A01E4
:1000B0000C947A010C947A010C947A010C947A01D4
:1000C0000C947A010C947A010C947A010C947A01C4
:1000D0000C947A010C947A010C947A010C947A01B4
:1000E0000C947A010C9470030C94A4050C942C02CB
:1000F0000C945B030C946C030C947E030C94C90168
:100100000C9472020C9440030C9496030C945703C5
:100110000C9488030C943A020C9492030C94BF0242
:100120000C945F030C948C030C947A030C94440895
:100130000C9484030C9463030C9466030C949C014C
:100140000C9476030C94D8010C9445034E414E490F
:100150004E495459494E46CDCCCC3D0AD7233C1785
:10016000B7D13877CC2B329595E6241FB14F0A00D2
:100170000020410000C84200401C4620BCBE4CCAC2
:100180001B0E5AAEC59D7400000A0B02090C0D0E21
:100190000807030401000000000000000000000048
:1001A000000000000000000000000000000000004F
:1001B000000000121110000000000000000000000C
:1001C000000000000000000000000000000000220D
:1001D00000250028002B002E003100340002010011
:1001E00000050108010B0100002100240027002A5E
:1001F000002D003000330001010000040107010A56
:100200000105050505070508080808020202020A9B
:100210000A080804040404010101010101010103A9
:1002200003030303030303040707070C0C0C0C0C64
:100230000C0C0C0202020206060606060606060B57
:100240000B0B0B0B0B0B0B010210202008081020CE
:100250004010204080020102010804020101020452
:100260000810204080804020100804020180040211
:100270000180402010080402010804020101020468
:100280000810204080010204081020408000A405CE
:10029000440811241FBECFEFD1E2DEBFCDBF00E086
:1002A0000CBF22E0A4E2B2E001C01D92AF3FB20752
:1002B000E1F712E0A0E0B2E0EAE5FBE100E00BBF0D
:1002C00002C007900D92A432B107D9F711E0C8E43B
:1002D000D1E000E006C021970109802FFE010E94B5
:1002E0007D0BC734D10780E00807A9F70E94E80515
:1002F0000C949B0D0C94000090E0FC01E95BFD4F19
:1003000024918F5F9D4FFC018491882399F090E0A8
:10031000880F991FFC01E951FE4FA591B491FC0192
:10032000E353FE4F859194918FB7F894EC91E22BB3
:10033000EC938FBF08950895AF92BF92CF92DF9252
:10034000EF92FF920F931F93CF93DF936C017B018A
:100350008B01040F151FEB015E01AE18BF08C0171B
:10036000D10759F06991D601ED91FC910190F0818E
:10037000E02DC6011995892B79F7C501DF91CF9141
:100380001F910F91FF90EF90DF90CF90BF90AF90B3
:100390000895FC01538D448D252F30E0842F90E08B
:1003A000821B930B541710F0CF9608950197089570
:1003B000FC01918D828D981761F0A28DAE0FBF2F39
:1003C000B11D5D968C91928D9F5F9F73928F90E08F
:1003D00008958FEF9FEF08952FB7F89480913E0214
:1003E00090913F02A0914002B09141022FBF8093B3
:1003F0004A0290934B02A0934C02B0934D0282E4C8
:1004000092E00E94D80197FF26C02FB7F894809100
:100410003E0290913F02A0914002B09141022FBF55
:1004200040914A0250914B0260914C0270914D02F2
:10043000841B950BA60BB70B4091460250914702C7
:10044000609148027091490284179507A607B70783
:10045000B0F28FEF9FEF0895FC01918D828D981778
:1004600031F0828DE80FF11D858D90E008958FEFBA
:100470009FEF0895FC01918D228D892F90E0805C83
:100480009F4F821B91098F739927089582E492E010
:100490000E943A0221E0892B09F420E0822F08957E
:1004A000FC01A48DA80FB92FB11DA35ABF4F2C91E9
:1004B000848D90E001968F739927848FA689B789E0
:1004C0002C93A089B1898C91837080648C93938DD7
:1004D000848D981306C00288F389E02D80818F7D7A
:1004E00080830895EF92FF920F931F93CF93DF9332
:1004F000EC0181E0888F9B8D8C8D98131AC0E88960
:10050000F989808185FF15C09FB7F894EE89FF892E
:100510006083E889F98980818370806480839FBFCC
:1005200081E090E0DF91CF911F910F91FF90EF90CC
:100530000895F62E0B8D10E00F5F1F4F0F731127DC
:10054000E02E8C8D8E110CC00FB607FCFACFE88917
:10055000F989808185FFF5CFCE010E945002F1CF4D
:10056000EB8DEC0FFD2FF11DE35AFF4FF0829FB78B
:10057000F8940B8FEA89FB8980818062CFCFCF937B
:10058000DF93EC01888D8823B9F0AA89BB89E889BB
:10059000F9898C9185FD03C0808186FD0DC00FB661
:1005A00007FCF7CF8C9185FFF2CF808185FFEDCFDF
:1005B000CE010E945002E9CFDF91CF91089580E0F3
:1005C00090E0892B29F00E94460281110E940000D0
:1005D00080E090E0892B49F080E090E0892B29F0C1
:1005E0000E94000081110E94000080E090E0892BB1
:1005F00049F080E090E0892B29F00E9400008111F1
:100600000E94000080E090E0892B49F080E090E0BB
:10061000892B29F00E94000081110C94000008959C
:10062000282F30E0F901E957FE4F9491F901E95B79
:10063000FD4F44912F5F3D4FF9012491222309F48E
:1006400035C0992311F191509231F8F4E92FF0E07F
:100650008827E25DFC4F8F4F0C947D0B5F03630393
:10066000400357035B03450366036C037003760383
:100670007A037E038403880345038C039203960365
:10068000809180008F7780938000E22FF0E0EE0F62
:10069000FF1FE353FE4FA591B4918FB7F894EC91EF
:1006A000611148C040954E234C938FBF08958091AF
:1006B00080008F7DE8CF80918000877FE4CF84B574
:1006C0008F7784BDE2CF84B58F7DFBCF8091B00062
:1006D0008F778093B000D9CF8091B0008F7DF9CF14
:1006E000809190008F7780939000CFCF8091900081
:1006F0008F7DF9CF80919000877FF5CF8091A0000A
:100700008F778093A000C1CF8091A0008F7DF9CF1B
:100710008091A000877FF5CF809120018F77809313
:100720002001B3CF809120018F7DF9CF80912001EE
:10073000877FF5CF4E2BB8CF863308F086532091B4
:100740007B00982F9870277F922B90937B00877067
:10075000806480937C0080917A00806480937A002A
:1007600080917A0086FDFCCF80917800909179008D
:1007700008953FB7F8948091250290912602A091A8
:100780002702B091280226B5A89B05C02F3F19F07B
:100790000196A11DB11D3FBFBA2FA92F982F882701
:1007A000BC01CD01620F711D811D911D42E0660FDC
:1007B000771F881F991F4A95D1F70895CF93DF932C
:1007C000EC0188819981009711F00E94210C198217
:1007D00018821D821C821B821A82DF91CF9108959C
:1007E000FC0180819181009711F00C94210C0895F7
:1007F0000F931F93CF93DF93EC018881998100972A
:1008000059F02A813B812617370730F081E0DF91CC
:10081000CF911F910F9108958B016F5F7F4F0E94C1
:10082000AA0C009759F0998388831B830A832C8133
:100830003D81232B59F7FC011082E8CF80E0E7CF00
:10084000EF92FF920F931F93CF93DF93EC011982E6
:1008500018821B821A821D821C826115710521F18A
:100860008B01FB0101900020E9F731977F01E61A27
:10087000F70AB7010E94F803811109C0CE01DF9188
:10088000CF911F910F91FF90EF900C94DE03FD82AA
:10089000EC82B80188819981DF91CF911F910F91EE
:1008A000FF90EF900C94940DDF91CF911F910F91D9
:1008B000FF90EF900895CF92DF92EF92FF920F9307
:1008C0001F93CF93DF93CDB7DEB762970FB6F8943F
:1008D000DEBF0FBECDBF8C01CB01F80111821082AB
:1008E00013821282158214824AE09E012F5F3F4FCD
:1008F0006901B9010E948308F60101900020E9F71F
:1009000031977F01EC18FD08B701C8010E94F80378
:10091000811112C0C8010E94DE0362960FB6F894DE
:10092000DEBF0FBECDBFDF91CF911F910F91FF9022
:10093000EF90DF90CF900895F801F582E482B60140
:10094000808191810E94940DE8CFEF92FF920F93E6
:100950001F93CF93DF936115710541F480E0DF9120
:10096000CF911F910F91FF90EF9008954115510580
:10097000B1F07B01EC010C811D81040F151FB80142
:100980000E94F803882351F3288139818C819D814D
:10099000B701820F931F0E94940D1D830C8381E089
:1009A000DECFCF93DF93EC01FB0101900020E9F74C
:1009B0003197AF01461B570B0E94A504811103C05C
:1009C000CE010E94DE03CE01DF91CF910895CF9337
:1009D000DF93EC01FB0144815581608171810E94AC
:1009E000A504811103C0CE010E94DE03CE01DF9178
:1009F000CF9108951F920F920FB60F9211240BB64C
:100A00000F922F933F934F935F936F937F938F93A7
:100A10009F93AF93BF93EF93FF9382E492E00E9482
:100A20005002FF91EF91BF91AF919F918F917F9174
:100A30006F915F914F913F912F910F900BBE0F904F
:100A40000FBE0F901F9018951F920F920FB60F9226
:100A500011240BB60F922F938F939F93EF93FF93D5
:100A6000E0915202F09153028081E0915802F0919E
:100A7000590282FD1DC0908180915B028F5F8F7350
:100A800020915C02821741F0E0915B02F0E0EE5BA6
:100A9000FD4F958F80935B02FF91EF919F918F9116
:100AA0002F910F900BBE0F900FBE0F901F901895B7
:100AB0008081F2CF1F920F920FB60F9211242F93C5
:100AC0003F938F939F93AF93BF9380913E029091FA
:100AD0003F02A0914002B09141023091240223E0F4
:100AE000230F2D3758F50196A11DB11D2093240227
:100AF00080933E0290933F02A0934002B093410244
:100B00008091250290912602A0912702B09128029F
:100B10000196A11DB11D8093250290932602A093FA
:100B20002702B0932802BF91AF919F918F913F917F
:100B30002F910F900FBE0F901F90189526E8230F4E
:100B40000296A11DB11DD2CFE2E4F2E0138212821F
:100B500088EE93E0A0E0B0E084839583A683B7831A
:100B60008AE092E09183808385EC90E0958784878A
:100B700084EC90E09787868780EC90E0918B808B67
:100B800081EC90E0938B828B82EC90E0958B848B50
:100B900086EC90E0978B868B118E128E138E148EBE
:100BA00062E272E085EE92E00E94200462E272E06E
:100BB0008BEE92E00E94200462E272E081EF92E00C
:100BC0000E94200462E272E08FED92E00C94200417
:100BD000CF93DF93CDB7DEB768970FB6F894DEBF3B
:100BE0000FBECDBF789484B5826084BD84B581602A
:100BF00084BD85B5826085BD85B5816085BD8091E8
:100C00006E00816080936E0010928100809181005F
:100C10008260809381008091810081608093810057
:100C2000809180008160809380008091B100846019
:100C30008093B1008091B00081608093B00080917A
:100C400091008260809391008091910081608093F7
:100C50009100809190008160809390008091A1002C
:100C600082608093A1008091A10081608093A100A7
:100C70008091A00081608093A0008091210182601A
:100C800080932101809121018160809321018091D5
:100C9000200181608093200180917A00846080939C
:100CA0007A0080917A00826080937A0080917A0045
:100CB000816080937A0080917A00806880937A00C6
:100CC0001092C1008BE00E947C018CE00E947C01AC
:100CD0008DE00E947C01E0915202F091530282E08B
:100CE0008083E0914E02F0914F021082E091500219
:100CF000F09151028FEC808310925A02E0915602DB
:100D0000F091570286E08083E0915402F091550201
:100D1000808180618083E0915402F091550280814E
:100D200088608083E0915402F09155028081806850
:100D30008083E0915402F091550280818F7D808301
:100D400084E690E0A0E0B0E08093460290934702F2
:100D5000A0934802B09349022CE3822E22E0922E07
:100D60003324339482E492E00E943A021816190662
:100D70000CF0DAC062E272E0CE0101960E9420041B
:100D80000E94EC0197FD0CC08F83188641E050E073
:100D9000BE01695F7F4FCE0101960E94A504F0CF8E
:100DA0008091DF029091E002009709F450C16981BF
:100DB0007A816115710509F448C14091E1025091B1
:100DC000E2022D813E814217530708F43EC10E9482
:100DD000940D8D819E819093E4028093E3021E82A4
:100DE0001D82CE0101960E94F00368E172E08091BD
:100DF000DF029091E0020E94580890933D02809398
:100E00003C0290E3C92E92E0D92E860160913C020B
:100E100070913D026115710511F1CE0101960E949C
:100E2000200489819A81009709F428C10E945408FE
:100E3000F80161937193819391938F01CE01019693
:100E40000E94F00368E172E090E080E00E945808A0
:100E500090933D0280933C0280169106B9F6609013
:100E6000300270903102A0903202B0903302E090D4
:100E70003402F0903502009136021091370293014E
:100E8000A501B701C8010E94780B181614F0730170
:100E90008501B0903802A090390270903A026090BB
:100EA0003B029701A8016B2D7A2D872D962D0E946C
:100EB000780B181624F0BE2CAF2C702E612E09E290
:100EC00012E0F12CE12CF6012191319141915191E7
:100ED0006F016B2D7A2D872D962D0E94370AF80110
:100EE0008111D0C03082FFEFEF1AFF0A0F5F1F4F52
:100EF0008C149D0441F7F3E0EF16F10431F41092E5
:100F00002B0210922A0210922902609129028BE092
:100F10000E94100360912A028CE00E9410036091ED
:100F20002B028DE00E94100386E30E949C039093A5
:100F30002F0280932E0287E30E949C0390932D0240
:100F400080932C0288E30E949C03BC01CE01019691
:100F50000E945B0460912C0270912D02CE010796D5
:100F60000E945B0460912E0270912F02CE010D96BB
:100F70000E945B046AE172E0CE0143960E94200465
:100F8000BE01635F7F4FCE0143960E94E7046CE190
:100F900072E00E94D104BE01695F7F4F0E94E704A6
:100FA0006CE172E00E94D104BE016F5F7F4F0E942E
:100FB000E7046EE172E00E94D104FC014481558196
:100FC0006081718182E492E00E949C0142E050E0E5
:100FD00060E272E082E492E00E949C01CE014396BE
:100FE0000E94F003CE010D960E94F003CE010796F9
:100FF0000E94F003CE0101960E94F0030E94B90303
:101000002B013C0184E6C82ED12CE12CF12C0E944E
:10101000B9036419750986099709683E734081050B
:101020009105A8F3F1E0CF1AD108E108F10828EE04
:10103000420E23E0521E611C711CC114D104E10454
:10104000F10429F70E94DF028DCE0E94210C8981D4
:101050009A819093E0028093DF028B819C81909330
:10106000E2028093E1028D819E819093E40280935D
:10107000E3021A8219821C821B82B1CE60E070E00A
:10108000CB01D6CE108232CF8FED92E00E94F003DA
:1010900081EF92E00E94F0038BEE92E00E94F00359
:1010A00085EE92E00C94F003662777270C94A8084D
:1010B00047EF52E00C945C08FA01A191B0810097CF
:1010C00019F41097E1F0CD01DC01CD010D90002065
:1010D00011F4C00113C0FB012191222319F0201546
:1010E000D9F7F3CFFB012191201519F41E92119627
:1010F00006C02223C1F70D900020A1F7D001FA010C
:10110000A193B0830895BB274A3031F4992322F488
:10111000BDE2909581959F4F0C948F08BB27FB01F2
:101120005527AA27880F991FAA1FA41710F0A41BE0
:1011300083955051B9F7A05DAA3308F0A95DA1933A
:10114000009779F7B111B1931192CB010C94270A52
:101150008F929F92AF92BF92CF92DF92EF92FF92C7
:101160000F931F93CF93DF935C017B016115710592
:1011700019F0DB018D939C9385010F5F1F4FF501E3
:10118000D0818D2F90E00E94060A6C01892BB9F561
:10119000DD32B9F50F5F1F4FD5011196DC91C1E02B
:1011A0005801F1E0AF1AB10843E050E064E571E0A6
:1011B000C5010E940F0A892B69F5680182E0C80EFB
:1011C000D11C45E050E06FE471E0C6010E940F0AB7
:1011D000892B21F4680197E0C90ED11CE114F104B8
:1011E00019F0D701CD92DC9260E070E080E89FEFCB
:1011F000C111FFC060E070E080E89FE7FAC05801CD
:10120000BBCFDB3229F485010E5F1F4FF501D18181
:10121000C0E0C6CF43E050E06CE471E0C5010E943D
:101220000F0A892BE9F0F80110E000E020E030E03F
:10123000A9015F01B0ED8B2E8D0E89E08815C8F1F4
:101240009C2E689491F88C2F8870C2FF16C0811173
:1012500002C00F5F1F4F3196D501DC91C92DE9CF38
:10126000E114F10429F00E5F1F4FF7011183008391
:1012700060E070E080EC9FE7BCC0882311F0015073
:101280001109A5E0B0E00E945E0B9B01AC01220FAA
:10129000331F441F551F280D311D411D511D283975
:1012A00099E93907490799E15907A8F2C6609C2EC8
:1012B000D2CFAEEF8A1206C0C3FD3CC09C2E68940C
:1012C00093F8C9CFDF7DD534A9F580818D3239F40B
:1012D000C061DF011296818162E070E006C0DF012B
:1012E0008B32C1F3119661E070E080535D01A61A64
:1012F000B70A8A30F8F4E0E8CE16ECE0DE065CF4DB
:10130000B601660F771F660F771FC60ED71ECC0C6F
:10131000DD1CC80ED11C5D01FFEFAF1ABF0A8C9116
:1013200080538A30A8F1C4FF03C0D194C194D1087E
:101330000C0D1D1DC1FF09C0E114F10431F081E065
:10134000A81AB108D701AD92BC92CA01B9010E9496
:101350003C0AC370C33009F490584B015C0120E093
:1013600030E0A9010E94370A882309F440C0C3E88D
:10137000D1E017FF05C0119501951109CBE6D1E029
:101380006E01B8E1CB1AD10880E2E82EF12C0FC033
:10139000D501B1CFFE0125913591459154910E199A
:1013A0001F09C501B4010E949D0A4B015C01D501D2
:1013B000C4010E151F0574F72497F594E794CC1615
:1013C000DD06A9F78A2F880F8B2F881F8F3F49F0E2
:1013D00020E030E0A901C501B4010E94370A811163
:1013E00006C082E290E09093FA028093F902C50170
:1013F000B401DF91CF911F910F91FF90EF90DF909B
:10140000CF90BF90AF909F908F90089591110C94C2
:101410000A0B803219F089508550C8F70895FB01F6
:10142000DC014150504088F08D9181341CF08B35A7
:101430000CF4805E659161341CF06B350CF4605ED9
:10144000861B611171F3990B0895881BFCCFDC0199
:10145000FC01672F71917723E1F7329704C07C91EB
:101460006D9370836291AE17BF07C8F308950E9411
:10147000790A08F481E00895E89409C097FB3EF4E6
:1014800090958095709561957F4F8F4F9F4F9923D1
:10149000A9F0F92F96E9BB279395F695879577954F
:1014A0006795B795F111F8CFFAF4BB0F11F460FF0F
:1014B0001BC06F5F7F4F8F4F9F4F16C0882311F067
:1014C00096E911C0772321F09EE8872F762F05C07B
:1014D000662371F096E8862F70E060E02AF09A9516
:1014E000660F771F881FDAF7880F9695879597F90B
:1014F0000895990F0008550FAA0BE0E8FEEF1616A5
:101500001706E807F907C0F012161306E407F507F7
:1015100098F0621B730B840B950B39F40A2661F06B
:10152000232B242B252B21F408950A2609F4A1400E
:10153000A6958FEF811D811D08950E94B00A0C941D
:10154000240B0E94160B38F00E941D0B20F09523EF
:1015500011F00C940D0B0C94130B11240C94580BDC
:101560000E94350B70F3959FC1F3950F50E0551F06
:10157000629FF001729FBB27F00DB11D639FAA27E8
:10158000F00DB11DAA1F649F6627B00DA11D661F37
:10159000829F2227B00DA11D621F739FB00DA11D58
:1015A000621F839FA00D611D221F749F3327A00D12
:1015B000611D231F849F600D211D822F762F6A2FAE
:1015C00011249F5750409AF0F1F088234AF0EE0F13
:1015D000FF1FBB1F661F771F881F91505040A9F740
:1015E0009E3F510580F00C940D0B0C94580B5F3FFF
:1015F000E4F3983ED4F3869577956795B795F7957C
:10160000E7959F5FC1F7FE2B880F911D96958795F3
:1016100097F9089599278827089597F99F6780E893
:1016200070E060E008959FEF80EC089500240A9434
:101630001616170618060906089500240A941216AD
:101640001306140605060895092E0394000C11F4E0
:10165000882352F0BB0F40F4BF2B11F460FF04C08D
:101660006F5F7F4F8F4F9F4F089557FD9058440FE6
:10167000551F59F05F3F71F04795880F97FB991FF1
:1016800061F09F3F79F087950895121613061406AE
:10169000551FF2CF4695F1DF08C01616170618063B
:1016A000991FF1CF86957105610508940895E89416
:1016B000BB2766277727CB0197F908950E94690B0E
:1016C000A59F900DB49F900DA49F800D911D112496
:1016D0000895A29FB001B39FC001A39F700D811D0B
:1016E0001124911DB29F700D811D1124911D08952B
:1016F0000E94790A08F48FEF0895EE0FFF1F881FEC
:101700008BBF0790F691E02D19940F931F93CF9301
:10171000DF938230910510F482E090E0E091FD02C9
:10172000F091FE0230E020E0B0E0A0E0309799F4C4
:101730002115310509F44AC0281B390B2430310525
:10174000D8F58A819B816115710589F1FB0193832D
:101750008283FE0111C040815181028113814817AB
:101760005907E0F04817590799F4109761F012965D
:101770000C93129713961C933296CF01DF91CF9161
:101780001F910F9108950093FD021093FE02F4CF74
:101790002115310551F04217530738F0A901DB013B
:1017A0009A01BD01DF01F801C1CFEF01F9CF90939C
:1017B000FE028093FD02CDCFFE01E20FF31F819365
:1017C00091932250310939832883D7CF2091FB028E
:1017D0003091FC02232B41F420910202309103024C
:1017E0003093FC022093FB02209100023091010211
:1017F0002115310541F42DB73EB7409104025091B7
:101800000502241B350BE091FB02F091FC02E2176C
:10181000F307A0F42E1B3F0B2817390778F0AC0113
:101820004E5F5F4F2417350748F04E0F5F1F5093F0
:10183000FC024093FB02819391939FCFF0E0E0E0A4
:101840009CCFCF93DF930097E9F0FC01329713828E
:101850001282A091FD02B091FE02ED0130E020E085
:101860001097A1F420813181820F931F2091FB02F8
:101870003091FC022817390709F061C0F093FC028F
:10188000E093FB02DF91CF910895EA01CE17DF07C5
:10189000E8F54A815B819E0141155105B1F7E901E7
:1018A000FB83EA8349915991C40FD51FEC17FD07BB
:1018B00061F4808191810296840F951FE9019983DB
:1018C0008883828193819B838A83F0E0E0E0129693
:1018D0008D919C9113970097B9F52D913C9111979B
:1018E000CD010296820F931F2091FB023091FC02E2
:1018F0002817390739F6309751F51092FE021092E9
:10190000FD02B093FC02A093FB02BCCFD383C28341
:1019100040815181840F951FC817D90761F44E5F2C
:101920005F4F88819981480F591F518340838A8175
:101930009B81938382832115310509F0B0CFF09309
:10194000FE02E093FD029ECFFD01DC01C0CF1382B9
:101950001282D7CF4F925F926F927F928F929F9217
:10196000AF92BF92CF92DF92EF92FF920F931F93AD
:10197000CF93DF938C01009799F4CB01DF91CF9146
:101980001F910F91FF90EF90DF90CF90BF90AF909D
:101990009F908F907F906F905F904F900C94850BED
:1019A000FC01E60FF71F9C0122503109E217F307F3
:1019B00008F4AEC0D901CD91DC911197C617D707B5
:1019C00020F1C530D10578F0CE010497861797072E
:1019D00050F0C61BD70B2297C193D1936D937C9384
:1019E000CF010E94210CC801DF91CF911F910F916F
:1019F000FF90EF90DF90CF90BF90AF909F908F902F
:101A00007F906F905F904F9008955B01AC1ABD0A74
:101A10004C018C0E9D1EA091FD02B091FE02512C36
:101A2000412CF12CE12C109731F58091FB02909123
:101A3000FC028815990509F05CC04616570608F0A7
:101A400058C08091000290910102009741F48DB737
:101A50009EB74091040250910502841B950BE81734
:101A6000F90708F055C0F093FC02E093FB02F9017E
:101A700071836083B8CF8D919C91119712966C9071
:101A8000129713967C901397A815B90559F56C0118
:101A900042E0C40ED11CCA14DB0420F1AC014A1987
:101AA0005B09DA011296159780F062827382518386
:101AB0004083D9016D937C93E114F10471F0D70157
:101AC0001396FC93EE9312978ECF22968C0F9D1F48
:101AD000F90191838083F301EFCFF093FE02E0934D
:101AE000FD0281CF4816590608F42C017D01D3016F
:101AF0009ACFCB010E94850B7C01009749F0AE0183
:101B0000B8010E948B0DC8010E94210C87016BCF88
:101B100010E000E068CFFB01DC0102C001900D92F3
:101B200041505040D8F70895FB01DC0101900D921F
:101B30000020E1F7089511E0C8E4D1E000E006C01C
:101B4000802FFE010E947D0B2196011DC934D10713
:0A1B500080E00807A9F7F894FFCF22
:101B5A000000FF0280000000000072029C01C9011F
:101B6A00BF023A02D8012C022C004900520046005A
:041B7A000D0A000050
:00000001FF
